{
  "_format": "hh-sol-artifact-1",
  "contractName": "TokenizedBallot",
  "sourceName": "contracts/TokenizedBallot.sol",
  "abi": [
    {
      "inputs": [
        {
          "internalType": "bytes32[]",
          "name": "_proposalNames",
          "type": "bytes32[]"
        },
        {
          "internalType": "address",
          "name": "_tokenContract",
          "type": "address"
        },
        {
          "internalType": "uint256",
          "name": "_targetBlockNumber",
          "type": "uint256"
        }
      ],
      "stateMutability": "nonpayable",
      "type": "constructor"
    },
    {
      "inputs": [
        {
          "internalType": "uint256",
          "name": "",
          "type": "uint256"
        }
      ],
      "name": "proposals",
      "outputs": [
        {
          "internalType": "bytes32",
          "name": "name",
          "type": "bytes32"
        },
        {
          "internalType": "uint256",
          "name": "voteCount",
          "type": "uint256"
        }
      ],
      "stateMutability": "view",
      "type": "function"
    },
    {
      "inputs": [],
      "name": "targetBlockNumber",
      "outputs": [
        {
          "internalType": "uint256",
          "name": "",
          "type": "uint256"
        }
      ],
      "stateMutability": "view",
      "type": "function"
    },
    {
      "inputs": [],
      "name": "tokenContract",
      "outputs": [
        {
          "internalType": "contract IMyToken",
          "name": "",
          "type": "address"
        }
      ],
      "stateMutability": "view",
      "type": "function"
    },
    {
      "inputs": [
        {
          "internalType": "uint256",
          "name": "proposal",
          "type": "uint256"
        },
        {
          "internalType": "uint256",
          "name": "amount",
          "type": "uint256"
        }
      ],
      "name": "vote",
      "outputs": [],
      "stateMutability": "nonpayable",
      "type": "function"
    },
    {
      "inputs": [
        {
          "internalType": "address",
          "name": "account",
          "type": "address"
        }
      ],
      "name": "votingPower",
      "outputs": [
        {
          "internalType": "uint256",
          "name": "",
          "type": "uint256"
        }
      ],
      "stateMutability": "view",
      "type": "function"
    },
    {
      "inputs": [],
      "name": "winnerName",
      "outputs": [
        {
          "internalType": "bytes32",
          "name": "winnerName_",
          "type": "bytes32"
        }
      ],
      "stateMutability": "view",
      "type": "function"
    },
    {
      "inputs": [],
      "name": "winningProposal",
      "outputs": [
        {
          "internalType": "uint256",
          "name": "winningProposal_",
          "type": "uint256"
        }
      ],
      "stateMutability": "view",
      "type": "function"
    }
  ],
  "bytecode": "0x60806040523480156200001157600080fd5b5060405162000fc338038062000fc3833981810160405281019062000037919062000403565b816000806101000a81548173ffffffffffffffffffffffffffffffffffffffff021916908373ffffffffffffffffffffffffffffffffffffffff16021790555043811115620000bd576040517f08c379a0000000000000000000000000000000000000000000000000000000008152600401620000b49062000505565b60405180910390fd5b8060028190555060005b8351811015620001955760006001808160018154018082558091505003906000526020600020906003020190508482815181106200010a576200010962000527565b5b602002602001015181600001819055506000816001018190555060008160020160003373ffffffffffffffffffffffffffffffffffffffff1673ffffffffffffffffffffffffffffffffffffffff16815260200190815260200160002060006101000a81548160ff0219169083151502179055505080806200018c9062000585565b915050620000c7565b50505050620005d2565b6000604051905090565b600080fd5b600080fd5b600080fd5b6000601f19601f8301169050919050565b7f4e487b7100000000000000000000000000000000000000000000000000000000600052604160045260246000fd5b6200020382620001b8565b810181811067ffffffffffffffff82111715620002255762000224620001c9565b5b80604052505050565b60006200023a6200019f565b9050620002488282620001f8565b919050565b600067ffffffffffffffff8211156200026b576200026a620001c9565b5b602082029050602081019050919050565b600080fd5b6000819050919050565b620002968162000281565b8114620002a257600080fd5b50565b600081519050620002b6816200028b565b92915050565b6000620002d3620002cd846200024d565b6200022e565b90508083825260208201905060208402830185811115620002f957620002f86200027c565b5b835b81811015620003265780620003118882620002a5565b845260208401935050602081019050620002fb565b5050509392505050565b600082601f830112620003485762000347620001b3565b5b81516200035a848260208601620002bc565b91505092915050565b600073ffffffffffffffffffffffffffffffffffffffff82169050919050565b6000620003908262000363565b9050919050565b620003a28162000383565b8114620003ae57600080fd5b50565b600081519050620003c28162000397565b92915050565b6000819050919050565b620003dd81620003c8565b8114620003e957600080fd5b50565b600081519050620003fd81620003d2565b92915050565b6000806000606084860312156200041f576200041e620001a9565b5b600084015167ffffffffffffffff81111562000440576200043f620001ae565b5b6200044e8682870162000330565b93505060206200046186828701620003b1565b92505060406200047486828701620003ec565b9150509250925092565b600082825260208201905092915050565b7f546f6b656e697a656442616c6c6f743a2054617267657420626c6f636b206e7560008201527f6d626572206d75737420626520696e2074686520706173740000000000000000602082015250565b6000620004ed6038836200047e565b9150620004fa826200048f565b604082019050919050565b600060208201905081810360008301526200052081620004de565b9050919050565b7f4e487b7100000000000000000000000000000000000000000000000000000000600052603260045260246000fd5b7f4e487b7100000000000000000000000000000000000000000000000000000000600052601160045260246000fd5b60006200059282620003c8565b91507fffffffffffffffffffffffffffffffffffffffffffffffffffffffffffffffff8203620005c757620005c662000556565b5b600182019050919050565b6109e180620005e26000396000f3fe608060405234801561001057600080fd5b506004361061007d5760003560e01c8063609ff1bd1161005b578063609ff1bd146100ef578063b384abef1461010d578063c07473f614610129578063e2ba53f0146101595761007d565b8063013cf08b146100825780632a8cd29e146100b357806355a373d6146100d1575b600080fd5b61009c60048036038101906100979190610529565b610177565b6040516100aa92919061057e565b60405180910390f35b6100bb6101ab565b6040516100c891906105a7565b60405180910390f35b6100d96101b1565b6040516100e69190610641565b60405180910390f35b6100f76101d5565b60405161010491906105a7565b60405180910390f35b6101276004803603810190610122919061065c565b61025d565b005b610143600480360381019061013e91906106da565b610412565b60405161015091906105a7565b60405180910390f35b6101616104ba565b60405161016e9190610707565b60405180910390f35b6001818154811061018757600080fd5b90600052602060002090600302016000915090508060000154908060010154905082565b60025481565b60008054906101000a900473ffffffffffffffffffffffffffffffffffffffff1681565b6000806000905060005b60018054905081101561025857816001828154811061020157610200610722565b5b9060005260206000209060030201600101541115610245576001818154811061022d5761022c610722565b5b90600052602060002090600302016001015491508092505b808061025090610780565b9150506101df565b505090565b8061026733610412565b10156102a8576040517f08c379a000000000000000000000000000000000000000000000000000000000815260040161029f9061084b565b60405180910390fd5b600182815481106102bc576102bb610722565b5b906000526020600020906003020160020160003373ffffffffffffffffffffffffffffffffffffffff1673ffffffffffffffffffffffffffffffffffffffff16815260200190815260200160002060009054906101000a900460ff1615610358576040517f08c379a000000000000000000000000000000000000000000000000000000000815260040161034f906108dd565b60405180910390fd5b600180838154811061036d5761036c610722565b5b906000526020600020906003020160020160003373ffffffffffffffffffffffffffffffffffffffff1673ffffffffffffffffffffffffffffffffffffffff16815260200190815260200160002060006101000a81548160ff02191690831515021790555080600183815481106103e7576103e6610722565b5b9060005260206000209060030201600101600082825461040791906108fd565b925050819055505050565b60008060009054906101000a900473ffffffffffffffffffffffffffffffffffffffff1673ffffffffffffffffffffffffffffffffffffffff16633a46b1a8836002546040518363ffffffff1660e01b8152600401610472929190610940565b602060405180830381865afa15801561048f573d6000803e3d6000fd5b505050506040513d601f19601f820116820180604052508101906104b3919061097e565b9050919050565b600060016104c66101d5565b815481106104d7576104d6610722565b5b906000526020600020906003020160000154905090565b600080fd5b6000819050919050565b610506816104f3565b811461051157600080fd5b50565b600081359050610523816104fd565b92915050565b60006020828403121561053f5761053e6104ee565b5b600061054d84828501610514565b91505092915050565b6000819050919050565b61056981610556565b82525050565b610578816104f3565b82525050565b60006040820190506105936000830185610560565b6105a0602083018461056f565b9392505050565b60006020820190506105bc600083018461056f565b92915050565b600073ffffffffffffffffffffffffffffffffffffffff82169050919050565b6000819050919050565b60006106076106026105fd846105c2565b6105e2565b6105c2565b9050919050565b6000610619826105ec565b9050919050565b600061062b8261060e565b9050919050565b61063b81610620565b82525050565b60006020820190506106566000830184610632565b92915050565b60008060408385031215610673576106726104ee565b5b600061068185828601610514565b925050602061069285828601610514565b9150509250929050565b60006106a7826105c2565b9050919050565b6106b78161069c565b81146106c257600080fd5b50565b6000813590506106d4816106ae565b92915050565b6000602082840312156106f0576106ef6104ee565b5b60006106fe848285016106c5565b91505092915050565b600060208201905061071c6000830184610560565b92915050565b7f4e487b7100000000000000000000000000000000000000000000000000000000600052603260045260246000fd5b7f4e487b7100000000000000000000000000000000000000000000000000000000600052601160045260246000fd5b600061078b826104f3565b91507fffffffffffffffffffffffffffffffffffffffffffffffffffffffffffffffff82036107bd576107bc610751565b5b600182019050919050565b600082825260208201905092915050565b7f546f6b656e697a656442616c6c6f743a20747279696e6720746f20766f74652060008201527f6d6f7265207468616e20616c6c6f776564000000000000000000000000000000602082015250565b60006108356031836107c8565b9150610840826107d9565b604082019050919050565b6000602082019050818103600083015261086481610828565b9050919050565b7f546f6b656e697a656442616c6c6f743a20616464726573732068617320616c7260008201527f6561647920766f74656420666f7220746869732070726f706f73616c00000000602082015250565b60006108c7603c836107c8565b91506108d28261086b565b604082019050919050565b600060208201905081810360008301526108f6816108ba565b9050919050565b6000610908826104f3565b9150610913836104f3565b925082820190508082111561092b5761092a610751565b5b92915050565b61093a8161069c565b82525050565b60006040820190506109556000830185610931565b610962602083018461056f565b9392505050565b600081519050610978816104fd565b92915050565b600060208284031215610994576109936104ee565b5b60006109a284828501610969565b9150509291505056fea2646970667358221220673c774fba01027c4cafd083fdfa5c5ed4c3f34fa00040cf8e3a6bedd33e6a7164736f6c63430008130033",
  "linkReferences": {},
  "deployedLinkReferences": {}
}